{
  "_format": "hh3-artifact-1",
  "contractName": "BoLilly",
  "sourceName": "contracts/BoLilly.sol",
  "abi": [
    {
      "inputs": [
        {
          "internalType": "string",
          "name": "name_",
          "type": "string"
        },
        {
          "internalType": "string",
          "name": "symbol_",
          "type": "string"
        },
        {
          "internalType": "uint256",
          "name": "initialTicketPriceWei",
          "type": "uint256"
        }
      ],
      "stateMutability": "nonpayable",
      "type": "constructor"
    },
    {
      "inputs": [],
      "name": "AccessControlBadConfirmation",
      "type": "error"
    },
    {
      "inputs": [
        {
          "internalType": "address",
          "name": "account",
          "type": "address"
        },
        {
          "internalType": "bytes32",
          "name": "neededRole",
          "type": "bytes32"
        }
      ],
      "name": "AccessControlUnauthorizedAccount",
      "type": "error"
    },
    {
      "inputs": [],
      "name": "ERC721EnumerableForbiddenBatchMint",
      "type": "error"
    },
    {
      "inputs": [
        {
          "internalType": "address",
          "name": "sender",
          "type": "address"
        },
        {
          "internalType": "uint256",
          "name": "tokenId",
          "type": "uint256"
        },
        {
          "internalType": "address",
          "name": "owner",
          "type": "address"
        }
      ],
      "name": "ERC721IncorrectOwner",
      "type": "error"
    },
    {
      "inputs": [
        {
          "internalType": "address",
          "name": "operator",
          "type": "address"
        },
        {
          "internalType": "uint256",
          "name": "tokenId",
          "type": "uint256"
        }
      ],
      "name": "ERC721InsufficientApproval",
      "type": "error"
    },
    {
      "inputs": [
        {
          "internalType": "address",
          "name": "approver",
          "type": "address"
        }
      ],
      "name": "ERC721InvalidApprover",
      "type": "error"
    },
    {
      "inputs": [
        {
          "internalType": "address",
          "name": "operator",
          "type": "address"
        }
      ],
      "name": "ERC721InvalidOperator",
      "type": "error"
    },
    {
      "inputs": [
        {
          "internalType": "address",
          "name": "owner",
          "type": "address"
        }
      ],
      "name": "ERC721InvalidOwner",
      "type": "error"
    },
    {
      "inputs": [
        {
          "internalType": "address",
          "name": "receiver",
          "type": "address"
        }
      ],
      "name": "ERC721InvalidReceiver",
      "type": "error"
    },
    {
      "inputs": [
        {
          "internalType": "address",
          "name": "sender",
          "type": "address"
        }
      ],
      "name": "ERC721InvalidSender",
      "type": "error"
    },
    {
      "inputs": [
        {
          "internalType": "uint256",
          "name": "tokenId",
          "type": "uint256"
        }
      ],
      "name": "ERC721NonexistentToken",
      "type": "error"
    },
    {
      "inputs": [
        {
          "internalType": "address",
          "name": "owner",
          "type": "address"
        },
        {
          "internalType": "uint256",
          "name": "index",
          "type": "uint256"
        }
      ],
      "name": "ERC721OutOfBoundsIndex",
      "type": "error"
    },
    {
      "inputs": [
        {
          "internalType": "address",
          "name": "owner",
          "type": "address"
        }
      ],
      "name": "OwnableInvalidOwner",
      "type": "error"
    },
    {
      "inputs": [
        {
          "internalType": "address",
          "name": "account",
          "type": "address"
        }
      ],
      "name": "OwnableUnauthorizedAccount",
      "type": "error"
    },
    {
      "inputs": [],
      "name": "ReentrancyGuardReentrantCall",
      "type": "error"
    },
    {
      "anonymous": false,
      "inputs": [
        {
          "indexed": true,
          "internalType": "address",
          "name": "owner",
          "type": "address"
        },
        {
          "indexed": true,
          "internalType": "address",
          "name": "approved",
          "type": "address"
        },
        {
          "indexed": true,
          "internalType": "uint256",
          "name": "tokenId",
          "type": "uint256"
        }
      ],
      "name": "Approval",
      "type": "event"
    },
    {
      "anonymous": false,
      "inputs": [
        {
          "indexed": true,
          "internalType": "address",
          "name": "owner",
          "type": "address"
        },
        {
          "indexed": true,
          "internalType": "address",
          "name": "operator",
          "type": "address"
        },
        {
          "indexed": false,
          "internalType": "bool",
          "name": "approved",
          "type": "bool"
        }
      ],
      "name": "ApprovalForAll",
      "type": "event"
    },
    {
      "anonymous": false,
      "inputs": [
        {
          "indexed": true,
          "internalType": "address",
          "name": "previousOwner",
          "type": "address"
        },
        {
          "indexed": true,
          "internalType": "address",
          "name": "newOwner",
          "type": "address"
        }
      ],
      "name": "OwnershipTransferred",
      "type": "event"
    },
    {
      "anonymous": false,
      "inputs": [
        {
          "indexed": true,
          "internalType": "address",
          "name": "to",
          "type": "address"
        },
        {
          "indexed": true,
          "internalType": "uint256",
          "name": "tokenId",
          "type": "uint256"
        },
        {
          "indexed": false,
          "internalType": "string",
          "name": "metadataUri",
          "type": "string"
        }
      ],
      "name": "PatronMinted",
      "type": "event"
    },
    {
      "anonymous": false,
      "inputs": [
        {
          "indexed": true,
          "internalType": "bytes32",
          "name": "role",
          "type": "bytes32"
        },
        {
          "indexed": true,
          "internalType": "bytes32",
          "name": "previousAdminRole",
          "type": "bytes32"
        },
        {
          "indexed": true,
          "internalType": "bytes32",
          "name": "newAdminRole",
          "type": "bytes32"
        }
      ],
      "name": "RoleAdminChanged",
      "type": "event"
    },
    {
      "anonymous": false,
      "inputs": [
        {
          "indexed": true,
          "internalType": "bytes32",
          "name": "role",
          "type": "bytes32"
        },
        {
          "indexed": true,
          "internalType": "address",
          "name": "account",
          "type": "address"
        },
        {
          "indexed": true,
          "internalType": "address",
          "name": "sender",
          "type": "address"
        }
      ],
      "name": "RoleGranted",
      "type": "event"
    },
    {
      "anonymous": false,
      "inputs": [
        {
          "indexed": true,
          "internalType": "bytes32",
          "name": "role",
          "type": "bytes32"
        },
        {
          "indexed": true,
          "internalType": "address",
          "name": "account",
          "type": "address"
        },
        {
          "indexed": true,
          "internalType": "address",
          "name": "sender",
          "type": "address"
        }
      ],
      "name": "RoleRevoked",
      "type": "event"
    },
    {
      "anonymous": false,
      "inputs": [
        {
          "indexed": true,
          "internalType": "address",
          "name": "to",
          "type": "address"
        },
        {
          "indexed": true,
          "internalType": "uint256",
          "name": "tokenId",
          "type": "uint256"
        },
        {
          "indexed": false,
          "internalType": "string",
          "name": "metadataUri",
          "type": "string"
        }
      ],
      "name": "StudentMinted",
      "type": "event"
    },
    {
      "anonymous": false,
      "inputs": [
        {
          "indexed": true,
          "internalType": "address",
          "name": "to",
          "type": "address"
        },
        {
          "indexed": true,
          "internalType": "uint256",
          "name": "tokenId",
          "type": "uint256"
        },
        {
          "indexed": true,
          "internalType": "uint256",
          "name": "eventId",
          "type": "uint256"
        },
        {
          "indexed": false,
          "internalType": "string",
          "name": "seat",
          "type": "string"
        },
        {
          "indexed": false,
          "internalType": "string",
          "name": "metadataUri",
          "type": "string"
        }
      ],
      "name": "TicketMinted",
      "type": "event"
    },
    {
      "anonymous": false,
      "inputs": [
        {
          "indexed": true,
          "internalType": "address",
          "name": "from",
          "type": "address"
        },
        {
          "indexed": true,
          "internalType": "address",
          "name": "to",
          "type": "address"
        },
        {
          "indexed": true,
          "internalType": "uint256",
          "name": "tokenId",
          "type": "uint256"
        }
      ],
      "name": "Transfer",
      "type": "event"
    },
    {
      "inputs": [],
      "name": "DEFAULT_ADMIN_ROLE",
      "outputs": [
        {
          "internalType": "bytes32",
          "name": "",
          "type": "bytes32"
        }
      ],
      "stateMutability": "view",
      "type": "function"
    },
    {
      "inputs": [],
      "name": "MINTER_ROLE",
      "outputs": [
        {
          "internalType": "bytes32",
          "name": "",
          "type": "bytes32"
        }
      ],
      "stateMutability": "view",
      "type": "function"
    },
    {
      "inputs": [
        {
          "internalType": "address",
          "name": "to",
          "type": "address"
        },
        {
          "internalType": "uint256",
          "name": "tokenId",
          "type": "uint256"
        }
      ],
      "name": "approve",
      "outputs": [],
      "stateMutability": "nonpayable",
      "type": "function"
    },
    {
      "inputs": [
        {
          "internalType": "address",
          "name": "owner",
          "type": "address"
        }
      ],
      "name": "balanceOf",
      "outputs": [
        {
          "internalType": "uint256",
          "name": "",
          "type": "uint256"
        }
      ],
      "stateMutability": "view",
      "type": "function"
    },
    {
      "inputs": [
        {
          "internalType": "uint256",
          "name": "tokenId",
          "type": "uint256"
        }
      ],
      "name": "getApproved",
      "outputs": [
        {
          "internalType": "address",
          "name": "",
          "type": "address"
        }
      ],
      "stateMutability": "view",
      "type": "function"
    },
    {
      "inputs": [
        {
          "internalType": "bytes32",
          "name": "role",
          "type": "bytes32"
        }
      ],
      "name": "getRoleAdmin",
      "outputs": [
        {
          "internalType": "bytes32",
          "name": "",
          "type": "bytes32"
        }
      ],
      "stateMutability": "view",
      "type": "function"
    },
    {
      "inputs": [
        {
          "internalType": "bytes32",
          "name": "role",
          "type": "bytes32"
        },
        {
          "internalType": "address",
          "name": "account",
          "type": "address"
        }
      ],
      "name": "grantRole",
      "outputs": [],
      "stateMutability": "nonpayable",
      "type": "function"
    },
    {
      "inputs": [
        {
          "internalType": "bytes32",
          "name": "role",
          "type": "bytes32"
        },
        {
          "internalType": "address",
          "name": "account",
          "type": "address"
        }
      ],
      "name": "hasRole",
      "outputs": [
        {
          "internalType": "bool",
          "name": "",
          "type": "bool"
        }
      ],
      "stateMutability": "view",
      "type": "function"
    },
    {
      "inputs": [
        {
          "internalType": "address",
          "name": "owner",
          "type": "address"
        },
        {
          "internalType": "address",
          "name": "operator",
          "type": "address"
        }
      ],
      "name": "isApprovedForAll",
      "outputs": [
        {
          "internalType": "bool",
          "name": "",
          "type": "bool"
        }
      ],
      "stateMutability": "view",
      "type": "function"
    },
    {
      "inputs": [
        {
          "internalType": "address",
          "name": "to",
          "type": "address"
        },
        {
          "internalType": "string",
          "name": "metadataUri",
          "type": "string"
        }
      ],
      "name": "mintPatron",
      "outputs": [
        {
          "internalType": "uint256",
          "name": "",
          "type": "uint256"
        }
      ],
      "stateMutability": "nonpayable",
      "type": "function"
    },
    {
      "inputs": [
        {
          "internalType": "string",
          "name": "metadataUri",
          "type": "string"
        }
      ],
      "name": "mintStudent",
      "outputs": [
        {
          "internalType": "uint256",
          "name": "",
          "type": "uint256"
        }
      ],
      "stateMutability": "nonpayable",
      "type": "function"
    },
    {
      "inputs": [
        {
          "internalType": "string",
          "name": "metadataUri",
          "type": "string"
        },
        {
          "internalType": "uint256",
          "name": "eventId",
          "type": "uint256"
        },
        {
          "internalType": "string",
          "name": "seat",
          "type": "string"
        }
      ],
      "name": "mintTicket",
      "outputs": [
        {
          "internalType": "uint256",
          "name": "",
          "type": "uint256"
        }
      ],
      "stateMutability": "payable",
      "type": "function"
    },
    {
      "inputs": [],
      "name": "name",
      "outputs": [
        {
          "internalType": "string",
          "name": "",
          "type": "string"
        }
      ],
      "stateMutability": "view",
      "type": "function"
    },
    {
      "inputs": [],
      "name": "owner",
      "outputs": [
        {
          "internalType": "address",
          "name": "",
          "type": "address"
        }
      ],
      "stateMutability": "view",
      "type": "function"
    },
    {
      "inputs": [
        {
          "internalType": "uint256",
          "name": "tokenId",
          "type": "uint256"
        }
      ],
      "name": "ownerOf",
      "outputs": [
        {
          "internalType": "address",
          "name": "",
          "type": "address"
        }
      ],
      "stateMutability": "view",
      "type": "function"
    },
    {
      "inputs": [
        {
          "internalType": "address",
          "name": "owner",
          "type": "address"
        }
      ],
      "name": "patronsOfOwner",
      "outputs": [
        {
          "components": [
            {
              "internalType": "uint256",
              "name": "tokenId",
              "type": "uint256"
            },
            {
              "internalType": "string",
              "name": "metadataUri",
              "type": "string"
            },
            {
              "internalType": "uint256",
              "name": "mintedAt",
              "type": "uint256"
            }
          ],
          "internalType": "struct BoLilly.Patron[]",
          "name": "",
          "type": "tuple[]"
        }
      ],
      "stateMutability": "view",
      "type": "function"
    },
    {
      "inputs": [],
      "name": "renounceOwnership",
      "outputs": [],
      "stateMutability": "nonpayable",
      "type": "function"
    },
    {
      "inputs": [
        {
          "internalType": "bytes32",
          "name": "role",
          "type": "bytes32"
        },
        {
          "internalType": "address",
          "name": "callerConfirmation",
          "type": "address"
        }
      ],
      "name": "renounceRole",
      "outputs": [],
      "stateMutability": "nonpayable",
      "type": "function"
    },
    {
      "inputs": [
        {
          "internalType": "bytes32",
          "name": "role",
          "type": "bytes32"
        },
        {
          "internalType": "address",
          "name": "account",
          "type": "address"
        }
      ],
      "name": "revokeRole",
      "outputs": [],
      "stateMutability": "nonpayable",
      "type": "function"
    },
    {
      "inputs": [
        {
          "internalType": "address",
          "name": "from",
          "type": "address"
        },
        {
          "internalType": "address",
          "name": "to",
          "type": "address"
        },
        {
          "internalType": "uint256",
          "name": "tokenId",
          "type": "uint256"
        }
      ],
      "name": "safeTransferFrom",
      "outputs": [],
      "stateMutability": "nonpayable",
      "type": "function"
    },
    {
      "inputs": [
        {
          "internalType": "address",
          "name": "from",
          "type": "address"
        },
        {
          "internalType": "address",
          "name": "to",
          "type": "address"
        },
        {
          "internalType": "uint256",
          "name": "tokenId",
          "type": "uint256"
        },
        {
          "internalType": "bytes",
          "name": "data",
          "type": "bytes"
        }
      ],
      "name": "safeTransferFrom",
      "outputs": [],
      "stateMutability": "nonpayable",
      "type": "function"
    },
    {
      "inputs": [
        {
          "internalType": "address",
          "name": "operator",
          "type": "address"
        },
        {
          "internalType": "bool",
          "name": "approved",
          "type": "bool"
        }
      ],
      "name": "setApprovalForAll",
      "outputs": [],
      "stateMutability": "nonpayable",
      "type": "function"
    },
    {
      "inputs": [
        {
          "internalType": "string",
          "name": "newBase",
          "type": "string"
        }
      ],
      "name": "setBaseURI",
      "outputs": [],
      "stateMutability": "nonpayable",
      "type": "function"
    },
    {
      "inputs": [
        {
          "internalType": "uint256",
          "name": "newPriceWei",
          "type": "uint256"
        }
      ],
      "name": "setTicketPrice",
      "outputs": [],
      "stateMutability": "nonpayable",
      "type": "function"
    },
    {
      "inputs": [
        {
          "internalType": "uint256",
          "name": "tokenId",
          "type": "uint256"
        },
        {
          "internalType": "string",
          "name": "newUri",
          "type": "string"
        }
      ],
      "name": "setTokenURI",
      "outputs": [],
      "stateMutability": "nonpayable",
      "type": "function"
    },
    {
      "inputs": [
        {
          "internalType": "address",
          "name": "owner",
          "type": "address"
        }
      ],
      "name": "studentsOfOwner",
      "outputs": [
        {
          "components": [
            {
              "internalType": "uint256",
              "name": "tokenId",
              "type": "uint256"
            },
            {
              "internalType": "string",
              "name": "metadataUri",
              "type": "string"
            },
            {
              "internalType": "uint256",
              "name": "mintedAt",
              "type": "uint256"
            }
          ],
          "internalType": "struct BoLilly.Student[]",
          "name": "",
          "type": "tuple[]"
        }
      ],
      "stateMutability": "view",
      "type": "function"
    },
    {
      "inputs": [
        {
          "internalType": "bytes4",
          "name": "interfaceId",
          "type": "bytes4"
        }
      ],
      "name": "supportsInterface",
      "outputs": [
        {
          "internalType": "bool",
          "name": "",
          "type": "bool"
        }
      ],
      "stateMutability": "view",
      "type": "function"
    },
    {
      "inputs": [],
      "name": "symbol",
      "outputs": [
        {
          "internalType": "string",
          "name": "",
          "type": "string"
        }
      ],
      "stateMutability": "view",
      "type": "function"
    },
    {
      "inputs": [],
      "name": "ticketPrice",
      "outputs": [
        {
          "internalType": "uint256",
          "name": "",
          "type": "uint256"
        }
      ],
      "stateMutability": "view",
      "type": "function"
    },
    {
      "inputs": [
        {
          "internalType": "address",
          "name": "owner",
          "type": "address"
        }
      ],
      "name": "ticketsOfOwner",
      "outputs": [
        {
          "components": [
            {
              "internalType": "uint256",
              "name": "tokenId",
              "type": "uint256"
            },
            {
              "internalType": "string",
              "name": "metadataUri",
              "type": "string"
            },
            {
              "internalType": "uint256",
              "name": "mintedAt",
              "type": "uint256"
            },
            {
              "internalType": "uint256",
              "name": "eventId",
              "type": "uint256"
            },
            {
              "internalType": "string",
              "name": "seat",
              "type": "string"
            }
          ],
          "internalType": "struct BoLilly.Ticket[]",
          "name": "",
          "type": "tuple[]"
        }
      ],
      "stateMutability": "view",
      "type": "function"
    },
    {
      "inputs": [
        {
          "internalType": "uint256",
          "name": "index",
          "type": "uint256"
        }
      ],
      "name": "tokenByIndex",
      "outputs": [
        {
          "internalType": "uint256",
          "name": "",
          "type": "uint256"
        }
      ],
      "stateMutability": "view",
      "type": "function"
    },
    {
      "inputs": [
        {
          "internalType": "address",
          "name": "owner",
          "type": "address"
        },
        {
          "internalType": "uint256",
          "name": "index",
          "type": "uint256"
        }
      ],
      "name": "tokenOfOwnerByIndex",
      "outputs": [
        {
          "internalType": "uint256",
          "name": "",
          "type": "uint256"
        }
      ],
      "stateMutability": "view",
      "type": "function"
    },
    {
      "inputs": [
        {
          "internalType": "uint256",
          "name": "tokenId",
          "type": "uint256"
        }
      ],
      "name": "tokenURI",
      "outputs": [
        {
          "internalType": "string",
          "name": "",
          "type": "string"
        }
      ],
      "stateMutability": "view",
      "type": "function"
    },
    {
      "inputs": [],
      "name": "totalSupply",
      "outputs": [
        {
          "internalType": "uint256",
          "name": "",
          "type": "uint256"
        }
      ],
      "stateMutability": "view",
      "type": "function"
    },
    {
      "inputs": [
        {
          "internalType": "address",
          "name": "from",
          "type": "address"
        },
        {
          "internalType": "address",
          "name": "to",
          "type": "address"
        },
        {
          "internalType": "uint256",
          "name": "tokenId",
          "type": "uint256"
        }
      ],
      "name": "transferFrom",
      "outputs": [],
      "stateMutability": "nonpayable",
      "type": "function"
    },
    {
      "inputs": [
        {
          "internalType": "address",
          "name": "newOwner",
          "type": "address"
        }
      ],
      "name": "transferOwnership",
      "outputs": [],
      "stateMutability": "nonpayable",
      "type": "function"
    },
    {
      "inputs": [
        {
          "internalType": "address payable",
          "name": "to",
          "type": "address"
        }
      ],
      "name": "withdraw",
      "outputs": [],
      "stateMutability": "nonpayable",
      "type": "function"
    }
  ],
  "bytecode": "0x60806040526001600d55348015610014575f5ffd5b50604051615344380380615344833981810160405281019061003691906104d9565b338383815f90816100479190610768565b5080600190816100579190610768565b5050505f73ffffffffffffffffffffffffffffffffffffffff168173ffffffffffffffffffffffffffffffffffffffff16036100ca575f6040517f1e4fbdf70000000000000000000000000000000000000000000000000000000081526004016100c19190610876565b60405180910390fd5b6100d98161013560201b60201c565b506001600c819055506100f45f5f1b336101f860201b60201c565b506101257f9f2df0fed2c77648de5860a4cc508cd0818c85b8b8a1ab4ceeef8d981c8956a6336101f860201b60201c565b508060148190555050505061088f565b5f600b5f9054906101000a900473ffffffffffffffffffffffffffffffffffffffff16905081600b5f6101000a81548173ffffffffffffffffffffffffffffffffffffffff021916908373ffffffffffffffffffffffffffffffffffffffff1602179055508173ffffffffffffffffffffffffffffffffffffffff168173ffffffffffffffffffffffffffffffffffffffff167f8be0079c531659141344cd1fd0a4f28419497f9722a3daafe3b4186f6b6457e060405160405180910390a35050565b5f61020983836102ee60201b60201c565b6102e4576001600a5f8581526020019081526020015f205f015f8473ffffffffffffffffffffffffffffffffffffffff1673ffffffffffffffffffffffffffffffffffffffff1681526020019081526020015f205f6101000a81548160ff02191690831515021790555061028161035260201b60201c565b73ffffffffffffffffffffffffffffffffffffffff168273ffffffffffffffffffffffffffffffffffffffff16847f2f8788117e7eff1d82e926ec794901d17c78024a50270940304540a733656f0d60405160405180910390a4600190506102e8565b5f90505b92915050565b5f600a5f8481526020019081526020015f205f015f8373ffffffffffffffffffffffffffffffffffffffff1673ffffffffffffffffffffffffffffffffffffffff1681526020019081526020015f205f9054906101000a900460ff16905092915050565b5f33905090565b5f604051905090565b5f5ffd5b5f5ffd5b5f5ffd5b5f5ffd5b5f601f19601f8301169050919050565b7f4e487b71000000000000000000000000000000000000000000000000000000005f52604160045260245ffd5b6103b882610372565b810181811067ffffffffffffffff821117156103d7576103d6610382565b5b80604052505050565b5f6103e9610359565b90506103f582826103af565b919050565b5f67ffffffffffffffff82111561041457610413610382565b5b61041d82610372565b9050602081019050919050565b8281835e5f83830152505050565b5f61044a610445846103fa565b6103e0565b9050828152602081018484840111156104665761046561036e565b5b61047184828561042a565b509392505050565b5f82601f83011261048d5761048c61036a565b5b815161049d848260208601610438565b91505092915050565b5f819050919050565b6104b8816104a6565b81146104c2575f5ffd5b50565b5f815190506104d3816104af565b92915050565b5f5f5f606084860312156104f0576104ef610362565b5b5f84015167ffffffffffffffff81111561050d5761050c610366565b5b61051986828701610479565b935050602084015167ffffffffffffffff81111561053a57610539610366565b5b61054686828701610479565b9250506040610557868287016104c5565b9150509250925092565b5f81519050919050565b7f4e487b71000000000000000000000000000000000000000000000000000000005f52602260045260245ffd5b5f60028204905060018216806105af57607f821691505b6020821081036105c2576105c161056b565b5b50919050565b5f819050815f5260205f209050919050565b5f6020601f8301049050919050565b5f82821b905092915050565b5f600883026106247fffffffffffffffffffffffffffffffffffffffffffffffffffffffffffffffff826105e9565b61062e86836105e9565b95508019841693508086168417925050509392505050565b5f819050919050565b5f61066961066461065f846104a6565b610646565b6104a6565b9050919050565b5f819050919050565b6106828361064f565b61069661068e82610670565b8484546105f5565b825550505050565b5f5f905090565b6106ad61069e565b6106b8818484610679565b505050565b5b818110156106db576106d05f826106a5565b6001810190506106be565b5050565b601f821115610720576106f1816105c8565b6106fa846105da565b81016020851015610709578190505b61071d610715856105da565b8301826106bd565b50505b505050565b5f82821c905092915050565b5f6107405f1984600802610725565b1980831691505092915050565b5f6107588383610731565b9150826002028217905092915050565b61077182610561565b67ffffffffffffffff81111561078a57610789610382565b5b6107948254610598565b61079f8282856106df565b5f60209050601f8311600181146107d0575f84156107be578287015190505b6107c8858261074d565b86555061082f565b601f1984166107de866105c8565b5f5b82811015610805578489015182556001820191506020850194506020810190506107e0565b86831015610822578489015161081e601f891682610731565b8355505b6001600288020188555050505b505050505050565b5f73ffffffffffffffffffffffffffffffffffffffff82169050919050565b5f61086082610837565b9050919050565b61087081610856565b82525050565b5f6020820190506108895f830184610867565b92915050565b614aa88061089c5f395ff3fe608060405260043610610219575f3560e01c806370a0823111610122578063b5cfb609116100aa578063d53913931161006e578063d539139314610823578063d547741f1461084d578063e985e9c514610875578063f2fde38b146108b1578063f6474784146108d957610219565b8063b5cfb6091461070b578063b885aa9914610747578063b88d4fde14610783578063c87b56dd146107ab578063cd4faf83146107e757610219565b806395d89b41116100f157806395d89b41146106235780639ba819781461064d578063a102d0d114610689578063a217fddf146106b9578063a22cb465146106e357610219565b806370a082311461056b578063715018a6146105a75780638da5cb5b146105bd57806391d14854146105e757610219565b8063248a9ca3116101a557806342842e0e1161017457806342842e0e1461047b5780634f6ccce7146104a357806351cff8d9146104df57806355f804b3146105075780636352211e1461052f57610219565b8063248a9ca3146103b35780632f2ff15d146103ef5780632f745c591461041757806336568abe1461045357610219565b80631209b1f6116101ec5780631209b1f6146102e75780631598165014610311578063162094c41461033957806318160ddd1461036157806323b872dd1461038b57610219565b806301ffc9a71461021d57806306fdde0314610259578063081812fc14610283578063095ea7b3146102bf575b5f5ffd5b348015610228575f5ffd5b50610243600480360381019061023e91906134d2565b610915565b6040516102509190613517565b60405180910390f35b348015610264575f5ffd5b5061026d610926565b60405161027a91906135a0565b60405180910390f35b34801561028e575f5ffd5b506102a960048036038101906102a491906135f3565b6109b5565b6040516102b6919061365d565b60405180910390f35b3480156102ca575f5ffd5b506102e560048036038101906102e091906136a0565b6109d0565b005b3480156102f2575f5ffd5b506102fb6109e6565b60405161030891906136ed565b60405180910390f35b34801561031c575f5ffd5b50610337600480360381019061033291906135f3565b6109ec565b005b348015610344575f5ffd5b5061035f600480360381019061035a9190613767565b6109fe565b005b34801561036c575f5ffd5b50610375610ac5565b60405161038291906136ed565b60405180910390f35b348015610396575f5ffd5b506103b160048036038101906103ac91906137c4565b610ad1565b005b3480156103be575f5ffd5b506103d960048036038101906103d49190613847565b610bd0565b6040516103e69190613881565b60405180910390f35b3480156103fa575f5ffd5b506104156004803603810190610410919061389a565b610bed565b005b348015610422575f5ffd5b5061043d600480360381019061043891906136a0565b610c0f565b60405161044a91906136ed565b60405180910390f35b34801561045e575f5ffd5b506104796004803603810190610474919061389a565b610cb3565b005b348015610486575f5ffd5b506104a1600480360381019061049c91906137c4565b610d2e565b005b3480156104ae575f5ffd5b506104c960048036038101906104c491906135f3565b610d4d565b6040516104d691906136ed565b60405180910390f35b3480156104ea575f5ffd5b5061050560048036038101906105009190613913565b610dbf565b005b348015610512575f5ffd5b5061052d6004803603810190610528919061393e565b610e65565b005b34801561053a575f5ffd5b50610555600480360381019061055091906135f3565b610e83565b604051610562919061365d565b60405180910390f35b348015610576575f5ffd5b50610591600480360381019061058c9190613989565b610e94565b60405161059e91906136ed565b60405180910390f35b3480156105b2575f5ffd5b506105bb610f4a565b005b3480156105c8575f5ffd5b506105d1610f5d565b6040516105de919061365d565b60405180910390f35b3480156105f2575f5ffd5b5061060d6004803603810190610608919061389a565b610f85565b60405161061a9190613517565b60405180910390f35b34801561062e575f5ffd5b50610637610fe9565b60405161064491906135a0565b60405180910390f35b348015610658575f5ffd5b50610673600480360381019061066e9190613989565b611079565b6040516106809190613b13565b60405180910390f35b6106a3600480360381019061069e9190613b33565b6111b5565b6040516106b091906136ed565b60405180910390f35b3480156106c4575f5ffd5b506106cd61145c565b6040516106da9190613881565b60405180910390f35b3480156106ee575f5ffd5b5061070960048036038101906107049190613bee565b611462565b005b348015610716575f5ffd5b50610731600480360381019061072c9190613989565b611478565b60405161073e9190613d34565b60405180910390f35b348015610752575f5ffd5b5061076d6004803603810190610768919061393e565b6115b4565b60405161077a91906136ed565b60405180910390f35b34801561078e575f5ffd5b506107a960048036038101906107a49190613e7c565b611743565b005b3480156107b6575f5ffd5b506107d160048036038101906107cc91906135f3565b611768565b6040516107de91906135a0565b60405180910390f35b3480156107f2575f5ffd5b5061080d60048036038101906108089190613989565b6118c1565b60405161081a9190614031565b60405180910390f35b34801561082e575f5ffd5b50610837611a97565b6040516108449190613881565b60405180910390f35b348015610858575f5ffd5b50610873600480360381019061086e919061389a565b611abb565b005b348015610880575f5ffd5b5061089b60048036038101906108969190614051565b611add565b6040516108a89190613517565b60405180910390f35b3480156108bc575f5ffd5b506108d760048036038101906108d29190613989565b611b6b565b005b3480156108e4575f5ffd5b506108ff60048036038101906108fa919061408f565b611bef565b60405161090c91906136ed565b60405180910390f35b5f61091f82611d9a565b9050919050565b60605f805461093490614119565b80601f016020809104026020016040519081016040528092919081815260200182805461096090614119565b80156109ab5780601f10610982576101008083540402835291602001916109ab565b820191905f5260205f20905b81548152906001019060200180831161098e57829003601f168201915b5050505050905090565b5f6109bf82611e13565b506109c982611e99565b9050919050565b6109e282826109dd611ed2565b611ed9565b5050565b60145481565b6109f4611eeb565b8060148190555050565b7f9f2df0fed2c77648de5860a4cc508cd0818c85b8b8a1ab4ceeef8d981c8956a6610a2881611f72565b5f73ffffffffffffffffffffffffffffffffffffffff16610a4885611f86565b73ffffffffffffffffffffffffffffffffffffffff1603610a9e576040517f08c379a0000000000000000000000000000000000000000000000000000000008152600401610a9590614193565b60405180910390fd5b828260115f8781526020019081526020015f209182610abe92919061435b565b5050505050565b5f600880549050905090565b5f73ffffffffffffffffffffffffffffffffffffffff168273ffffffffffffffffffffffffffffffffffffffff1603610b41575f6040517f64a0ae92000000000000000000000000000000000000000000000000000000008152600401610b38919061365d565b60405180910390fd5b5f610b548383610b4f611ed2565b611fbf565b90508373ffffffffffffffffffffffffffffffffffffffff168173ffffffffffffffffffffffffffffffffffffffff1614610bca578382826040517f64283d7b000000000000000000000000000000000000000000000000000000008152600401610bc193929190614428565b60405180910390fd5b50505050565b5f600a5f8381526020019081526020015f20600101549050919050565b610bf682610bd0565b610bff81611f72565b610c0983836120d9565b50505050565b5f610c1983610e94565b8210610c5e5782826040517fa57d13dc000000000000000000000000000000000000000000000000000000008152600401610c5592919061445d565b60405180910390fd5b60065f8473ffffffffffffffffffffffffffffffffffffffff1673ffffffffffffffffffffffffffffffffffffffff1681526020019081526020015f205f8381526020019081526020015f2054905092915050565b610cbb611ed2565b73ffffffffffffffffffffffffffffffffffffffff168173ffffffffffffffffffffffffffffffffffffffff1614610d1f576040517f6697b23200000000000000000000000000000000000000000000000000000000815260040160405180910390fd5b610d2982826121c3565b505050565b610d4883838360405180602001604052805f815250611743565b505050565b5f610d56610ac5565b8210610d9b575f826040517fa57d13dc000000000000000000000000000000000000000000000000000000008152600401610d9292919061445d565b60405180910390fd5b60088281548110610daf57610dae614484565b5b905f5260205f2001549050919050565b610dc7611eeb565b610dcf6122ad565b5f4790505f8111610e15576040517f08c379a0000000000000000000000000000000000000000000000000000000008152600401610e0c906144fb565b60405180910390fd5b8173ffffffffffffffffffffffffffffffffffffffff166108fc8290811502906040515f60405180830381858888f19350505050158015610e58573d5f5f3e3d5ffd5b5050610e626122f3565b50565b610e6d611eeb565b818160139182610e7e92919061435b565b505050565b5f610e8d82611e13565b9050919050565b5f5f73ffffffffffffffffffffffffffffffffffffffff168273ffffffffffffffffffffffffffffffffffffffff1603610f05575f6040517f89c62b64000000000000000000000000000000000000000000000000000000008152600401610efc919061365d565b60405180910390fd5b60035f8373ffffffffffffffffffffffffffffffffffffffff1673ffffffffffffffffffffffffffffffffffffffff1681526020019081526020015f20549050919050565b610f52611eeb565b610f5b5f6122fd565b565b5f600b5f9054906101000a900473ffffffffffffffffffffffffffffffffffffffff16905090565b5f600a5f8481526020019081526020015f205f015f8373ffffffffffffffffffffffffffffffffffffffff1673ffffffffffffffffffffffffffffffffffffffff1681526020019081526020015f205f9054906101000a900460ff16905092915050565b606060018054610ff890614119565b80601f016020809104026020016040519081016040528092919081815260200182805461102490614119565b801561106f5780601f106110465761010080835404028352916020019161106f565b820191905f5260205f20905b81548152906001019060200180831161105257829003601f168201915b5050505050905090565b6060600e5f8373ffffffffffffffffffffffffffffffffffffffff1673ffffffffffffffffffffffffffffffffffffffff1681526020019081526020015f20805480602002602001604051908101604052809291908181526020015f905b828210156111aa578382905f5260205f2090600302016040518060600160405290815f820154815260200160018201805461111190614119565b80601f016020809104026020016040519081016040528092919081815260200182805461113d90614119565b80156111885780601f1061115f57610100808354040283529160200191611188565b820191905f5260205f20905b81548152906001019060200180831161116b57829003601f168201915b50505050508152602001600282015481525050815260200190600101906110d7565b505050509050919050565b5f6111be6122ad565b601454341015611203576040517f08c379a00000000000000000000000000000000000000000000000000000000081526004016111fa90614563565b60405180910390fd5b5f6013805461121190614119565b90500361122b5785856013918261122992919061435b565b505b5f61123933600389896123c0565b905060105f3373ffffffffffffffffffffffffffffffffffffffff1673ffffffffffffffffffffffffffffffffffffffff1681526020019081526020015f206040518060a0016040528083815260200189898080601f0160208091040260200160405190810160405280939291908181526020018383808284375f81840152601f19601f82011690508083019250505050505050815260200142815260200187815260200186868080601f0160208091040260200160405190810160405280939291908181526020018383808284375f81840152601f19601f82011690508083019250505050505050815250908060018154018082558091505060019003905f5260205f2090600502015f909190919091505f820151815f015560208201518160010190816113689190614581565b50604082015181600201556060820151816003015560808201518160040190816113929190614581565b5050506014543411156113f1573373ffffffffffffffffffffffffffffffffffffffff166108fc601454346113c7919061467d565b90811502906040515f60405180830381858888f193505050501580156113ef573d5f5f3e3d5ffd5b505b84813373ffffffffffffffffffffffffffffffffffffffff167fd323d7d3cbab39cd4fd1cf503f867ab98a72ec70bbccc451d1b3ada3e73f99e387878c8c60405161143f94939291906146dc565b60405180910390a4809150506114536122f3565b95945050505050565b5f5f1b81565b61147461146d611ed2565b8383612449565b5050565b6060600f5f8373ffffffffffffffffffffffffffffffffffffffff1673ffffffffffffffffffffffffffffffffffffffff1681526020019081526020015f20805480602002602001604051908101604052809291908181526020015f905b828210156115a9578382905f5260205f2090600302016040518060600160405290815f820154815260200160018201805461151090614119565b80601f016020809104026020016040519081016040528092919081815260200182805461153c90614119565b80156115875780601f1061155e57610100808354040283529160200191611587565b820191905f5260205f20905b81548152906001019060200180831161156a57829003601f168201915b50505050508152602001600282015481525050815260200190600101906114d6565b505050509050919050565b5f6115bd6122ad565b5f601380546115cb90614119565b9050036115e5578282601391826115e392919061435b565b505b5f6115f333600186866123c0565b9050600e5f3373ffffffffffffffffffffffffffffffffffffffff1673ffffffffffffffffffffffffffffffffffffffff1681526020019081526020015f20604051806060016040528083815260200186868080601f0160208091040260200160405190810160405280939291908181526020018383808284375f81840152601f19601f82011690508083019250505050505050815260200142815250908060018154018082558091505060019003905f5260205f2090600302015f909190919091505f820151815f015560208201518160010190816116d39190614581565b50604082015181600201555050803373ffffffffffffffffffffffffffffffffffffffff167f0f2f2d478de4cc554caf45e20d4a8ae2d4bc29136bbd4b30942daf415be496ef8686604051611729929190614715565b60405180910390a38091505061173d6122f3565b92915050565b61174e848484610ad1565b611762611759611ed2565b858585856125b2565b50505050565b60605f73ffffffffffffffffffffffffffffffffffffffff1661178a83611f86565b73ffffffffffffffffffffffffffffffffffffffff16036117e0576040517f08c379a00000000000000000000000000000000000000000000000000000000081526004016117d7906147a7565b60405180910390fd5b5f60115f8481526020019081526020015f2080546117fd90614119565b80601f016020809104026020016040519081016040528092919081815260200182805461182990614119565b80156118745780601f1061184b57610100808354040283529160200191611874565b820191905f5260205f20905b81548152906001019060200180831161185757829003601f168201915b505050505090505f8151111561188d57809150506118bc565b60136118988461275e565b6040516020016118a992919061487f565b6040516020818303038152906040529150505b919050565b606060105f8373ffffffffffffffffffffffffffffffffffffffff1673ffffffffffffffffffffffffffffffffffffffff1681526020019081526020015f20805480602002602001604051908101604052809291908181526020015f905b82821015611a8c578382905f5260205f2090600502016040518060a00160405290815f820154815260200160018201805461195990614119565b80601f016020809104026020016040519081016040528092919081815260200182805461198590614119565b80156119d05780601f106119a7576101008083540402835291602001916119d0565b820191905f5260205f20905b8154815290600101906020018083116119b357829003601f168201915b5050505050815260200160028201548152602001600382015481526020016004820180546119fd90614119565b80601f0160208091040260200160405190810160405280929190818152602001828054611a2990614119565b8015611a745780601f10611a4b57610100808354040283529160200191611a74565b820191905f5260205f20905b815481529060010190602001808311611a5757829003601f168201915b5050505050815250508152602001906001019061191f565b505050509050919050565b7f9f2df0fed2c77648de5860a4cc508cd0818c85b8b8a1ab4ceeef8d981c8956a681565b611ac482610bd0565b611acd81611f72565b611ad783836121c3565b50505050565b5f60055f8473ffffffffffffffffffffffffffffffffffffffff1673ffffffffffffffffffffffffffffffffffffffff1681526020019081526020015f205f8373ffffffffffffffffffffffffffffffffffffffff1673ffffffffffffffffffffffffffffffffffffffff1681526020019081526020015f205f9054906101000a900460ff16905092915050565b611b73611eeb565b5f73ffffffffffffffffffffffffffffffffffffffff168173ffffffffffffffffffffffffffffffffffffffff1603611be3575f6040517f1e4fbdf7000000000000000000000000000000000000000000000000000000008152600401611bda919061365d565b60405180910390fd5b611bec816122fd565b50565b5f7f9f2df0fed2c77648de5860a4cc508cd0818c85b8b8a1ab4ceeef8d981c8956a6611c1a81611f72565b5f60138054611c2890614119565b905003611c4257838360139182611c4092919061435b565b505b5f611c5086600287876123c0565b9050600f5f8773ffffffffffffffffffffffffffffffffffffffff1673ffffffffffffffffffffffffffffffffffffffff1681526020019081526020015f20604051806060016040528083815260200187878080601f0160208091040260200160405190810160405280939291908181526020018383808284375f81840152601f19601f82011690508083019250505050505050815260200142815250908060018154018082558091505060019003905f5260205f2090600302015f909190919091505f820151815f01556020820151816001019081611d309190614581565b50604082015181600201555050808673ffffffffffffffffffffffffffffffffffffffff167f5ade98e010a7e36e313c8632eeb308a7f5b0013171ba21a556ca75d67d5578728787604051611d86929190614715565b60405180910390a380925050509392505050565b5f7f7965db0b000000000000000000000000000000000000000000000000000000007bffffffffffffffffffffffffffffffffffffffffffffffffffffffff1916827bffffffffffffffffffffffffffffffffffffffffffffffffffffffff19161480611e0c5750611e0b82612828565b5b9050919050565b5f5f611e1e83611f86565b90505f73ffffffffffffffffffffffffffffffffffffffff168173ffffffffffffffffffffffffffffffffffffffff1603611e9057826040517f7e273289000000000000000000000000000000000000000000000000000000008152600401611e8791906136ed565b60405180910390fd5b80915050919050565b5f60045f8381526020019081526020015f205f9054906101000a900473ffffffffffffffffffffffffffffffffffffffff169050919050565b5f33905090565b611ee683838360016128a1565b505050565b611ef3611ed2565b73ffffffffffffffffffffffffffffffffffffffff16611f11610f5d565b73ffffffffffffffffffffffffffffffffffffffff1614611f7057611f34611ed2565b6040517f118cdaa7000000000000000000000000000000000000000000000000000000008152600401611f67919061365d565b60405180910390fd5b565b611f8381611f7e611ed2565b612a60565b50565b5f60025f8381526020019081526020015f205f9054906101000a900473ffffffffffffffffffffffffffffffffffffffff169050919050565b5f5f611fcc858585612ab1565b90505f73ffffffffffffffffffffffffffffffffffffffff168173ffffffffffffffffffffffffffffffffffffffff160361200f5761200a84612cbc565b61204e565b8473ffffffffffffffffffffffffffffffffffffffff168173ffffffffffffffffffffffffffffffffffffffff161461204d5761204c8185612d00565b5b5b5f73ffffffffffffffffffffffffffffffffffffffff168573ffffffffffffffffffffffffffffffffffffffff160361208f5761208a84612dd7565b6120ce565b8473ffffffffffffffffffffffffffffffffffffffff168173ffffffffffffffffffffffffffffffffffffffff16146120cd576120cc8585612e97565b5b5b809150509392505050565b5f6120e48383610f85565b6121b9576001600a5f8581526020019081526020015f205f015f8473ffffffffffffffffffffffffffffffffffffffff1673ffffffffffffffffffffffffffffffffffffffff1681526020019081526020015f205f6101000a81548160ff021916908315150217905550612156611ed2565b73ffffffffffffffffffffffffffffffffffffffff168273ffffffffffffffffffffffffffffffffffffffff16847f2f8788117e7eff1d82e926ec794901d17c78024a50270940304540a733656f0d60405160405180910390a4600190506121bd565b5f90505b92915050565b5f6121ce8383610f85565b156122a3575f600a5f8581526020019081526020015f205f015f8473ffffffffffffffffffffffffffffffffffffffff1673ffffffffffffffffffffffffffffffffffffffff1681526020019081526020015f205f6101000a81548160ff021916908315150217905550612240611ed2565b73ffffffffffffffffffffffffffffffffffffffff168273ffffffffffffffffffffffffffffffffffffffff16847ff6391f5c32d9c69d2a47ea670b442974b53935d1edc7fd64eb21e047a839171b60405160405180910390a4600190506122a7565b5f90505b92915050565b6002600c54036122e9576040517f3ee5aeb500000000000000000000000000000000000000000000000000000000815260040160405180910390fd5b6002600c81905550565b6001600c81905550565b5f600b5f9054906101000a900473ffffffffffffffffffffffffffffffffffffffff16905081600b5f6101000a81548173ffffffffffffffffffffffffffffffffffffffff021916908373ffffffffffffffffffffffffffffffffffffffff1602179055508173ffffffffffffffffffffffffffffffffffffffff168173ffffffffffffffffffffffffffffffffffffffff167f8be0079c531659141344cd1fd0a4f28419497f9722a3daafe3b4186f6b6457e060405160405180910390a35050565b5f5f600d5f8154809291906123d4906148a2565b9190505590506123e48682612f1b565b8460125f8381526020019081526020015f205f6101000a81548160ff02191690836003811115612417576124166148e9565b5b0217905550838360115f8481526020019081526020015f20918261243c92919061435b565b5080915050949350505050565b5f73ffffffffffffffffffffffffffffffffffffffff168273ffffffffffffffffffffffffffffffffffffffff16036124b957816040517f5b08ba180000000000000000000000000000000000000000000000000000000081526004016124b0919061365d565b60405180910390fd5b8060055f8573ffffffffffffffffffffffffffffffffffffffff1673ffffffffffffffffffffffffffffffffffffffff1681526020019081526020015f205f8473ffffffffffffffffffffffffffffffffffffffff1673ffffffffffffffffffffffffffffffffffffffff1681526020019081526020015f205f6101000a81548160ff0219169083151502179055508173ffffffffffffffffffffffffffffffffffffffff168373ffffffffffffffffffffffffffffffffffffffff167f17307eab39ab6107e8899845ad3d59bd9653f200f220920489ca2b5937696c31836040516125a59190613517565b60405180910390a3505050565b5f8373ffffffffffffffffffffffffffffffffffffffff163b1115612757578273ffffffffffffffffffffffffffffffffffffffff1663150b7a02868685856040518563ffffffff1660e01b81526004016126109493929190614968565b6020604051808303815f875af192505050801561264b57506040513d601f19601f8201168201806040525081019061264891906149c6565b60015b6126cc573d805f8114612679576040519150601f19603f3d011682016040523d82523d5f602084013e61267e565b606091505b505f8151036126c457836040517f64a0ae920000000000000000000000000000000000000000000000000000000081526004016126bb919061365d565b60405180910390fd5b805160208201fd5b63150b7a0260e01b7bffffffffffffffffffffffffffffffffffffffffffffffffffffffff1916817bffffffffffffffffffffffffffffffffffffffffffffffffffffffff19161461275557836040517f64a0ae9200000000000000000000000000000000000000000000000000000000815260040161274c919061365d565b60405180910390fd5b505b5050505050565b60605f600161276c84612f38565b0190505f8167ffffffffffffffff81111561278a57612789613d58565b5b6040519080825280601f01601f1916602001820160405280156127bc5781602001600182028036833780820191505090505b5090505f82602083010190505b60011561281d578080600190039150507f3031323334353637383961626364656600000000000000000000000000000000600a86061a8153600a8581612812576128116149f1565b5b0494505f85036127c9575b819350505050919050565b5f7f780e9d63000000000000000000000000000000000000000000000000000000007bffffffffffffffffffffffffffffffffffffffffffffffffffffffff1916827bffffffffffffffffffffffffffffffffffffffffffffffffffffffff1916148061289a575061289982613089565b5b9050919050565b80806128d957505f73ffffffffffffffffffffffffffffffffffffffff168273ffffffffffffffffffffffffffffffffffffffff1614155b15612a0b575f6128e884611e13565b90505f73ffffffffffffffffffffffffffffffffffffffff168373ffffffffffffffffffffffffffffffffffffffff161415801561295257508273ffffffffffffffffffffffffffffffffffffffff168173ffffffffffffffffffffffffffffffffffffffff1614155b801561296557506129638184611add565b155b156129a757826040517fa9fbf51f00000000000000000000000000000000000000000000000000000000815260040161299e919061365d565b60405180910390fd5b8115612a0957838573ffffffffffffffffffffffffffffffffffffffff168273ffffffffffffffffffffffffffffffffffffffff167f8c5be1e5ebec7d5bd14f71427d1e84f3dd0314c0f7b2291e5b200ac8c7c3b92560405160405180910390a45b505b8360045f8581526020019081526020015f205f6101000a81548173ffffffffffffffffffffffffffffffffffffffff021916908373ffffffffffffffffffffffffffffffffffffffff16021790555050505050565b612a6a8282610f85565b612aad5780826040517fe2517d3f000000000000000000000000000000000000000000000000000000008152600401612aa4929190614a1e565b60405180910390fd5b5050565b5f5f612abc84611f86565b90505f73ffffffffffffffffffffffffffffffffffffffff168373ffffffffffffffffffffffffffffffffffffffff1614612afd57612afc81848661316a565b5b5f73ffffffffffffffffffffffffffffffffffffffff168173ffffffffffffffffffffffffffffffffffffffff1614612b8857612b3c5f855f5f6128a1565b600160035f8373ffffffffffffffffffffffffffffffffffffffff1673ffffffffffffffffffffffffffffffffffffffff1681526020019081526020015f205f82825403925050819055505b5f73ffffffffffffffffffffffffffffffffffffffff168573ffffffffffffffffffffffffffffffffffffffff1614612c0757600160035f8773ffffffffffffffffffffffffffffffffffffffff1673ffffffffffffffffffffffffffffffffffffffff1681526020019081526020015f205f82825401925050819055505b8460025f8681526020019081526020015f205f6101000a81548173ffffffffffffffffffffffffffffffffffffffff021916908373ffffffffffffffffffffffffffffffffffffffff160217905550838573ffffffffffffffffffffffffffffffffffffffff168273ffffffffffffffffffffffffffffffffffffffff167fddf252ad1be2c89b69c2b068fc378daa952ba7f163c4a11628f55a4df523b3ef60405160405180910390a4809150509392505050565b60088054905060095f8381526020019081526020015f2081905550600881908060018154018082558091505060019003905f5260205f20015f909190919091505550565b5f612d0a83610e94565b90505f60075f8481526020019081526020015f205490505f60065f8673ffffffffffffffffffffffffffffffffffffffff1673ffffffffffffffffffffffffffffffffffffffff1681526020019081526020015f209050828214612da9575f815f8581526020019081526020015f2054905080825f8581526020019081526020015f20819055508260075f8381526020019081526020015f2081905550505b60075f8581526020019081526020015f205f9055805f8481526020019081526020015f205f90555050505050565b5f6001600880549050612dea919061467d565b90505f60095f8481526020019081526020015f205490505f60088381548110612e1657612e15614484565b5b905f5260205f20015490508060088381548110612e3657612e35614484565b5b905f5260205f2001819055508160095f8381526020019081526020015f208190555060095f8581526020019081526020015f205f90556008805480612e7e57612e7d614a45565b5b600190038181905f5260205f20015f9055905550505050565b5f6001612ea384610e94565b612ead919061467d565b90508160065f8573ffffffffffffffffffffffffffffffffffffffff1673ffffffffffffffffffffffffffffffffffffffff1681526020019081526020015f205f8381526020019081526020015f20819055508060075f8481526020019081526020015f2081905550505050565b612f34828260405180602001604052805f81525061322d565b5050565b5f5f5f90507a184f03e93ff9f4daa797ed6e38ed64bf6a1f0100000000000000008310612f94577a184f03e93ff9f4daa797ed6e38ed64bf6a1f0100000000000000008381612f8a57612f896149f1565b5b0492506040810190505b6d04ee2d6d415b85acef81000000008310612fd1576d04ee2d6d415b85acef81000000008381612fc757612fc66149f1565b5b0492506020810190505b662386f26fc10000831061300057662386f26fc100008381612ff657612ff56149f1565b5b0492506010810190505b6305f5e1008310613029576305f5e100838161301f5761301e6149f1565b5b0492506008810190505b612710831061304e576127108381613044576130436149f1565b5b0492506004810190505b606483106130715760648381613067576130666149f1565b5b0492506002810190505b600a8310613080576001810190505b80915050919050565b5f7f80ac58cd000000000000000000000000000000000000000000000000000000007bffffffffffffffffffffffffffffffffffffffffffffffffffffffff1916827bffffffffffffffffffffffffffffffffffffffffffffffffffffffff1916148061315357507f5b5e139f000000000000000000000000000000000000000000000000000000007bffffffffffffffffffffffffffffffffffffffffffffffffffffffff1916827bffffffffffffffffffffffffffffffffffffffffffffffffffffffff1916145b80613163575061316282613250565b5b9050919050565b6131758383836132b9565b613228575f73ffffffffffffffffffffffffffffffffffffffff168373ffffffffffffffffffffffffffffffffffffffff16036131e957806040517f7e2732890000000000000000000000000000000000000000000000000000000081526004016131e091906136ed565b60405180910390fd5b81816040517f177e802f00000000000000000000000000000000000000000000000000000000815260040161321f92919061445d565b60405180910390fd5b505050565b6132378383613379565b61324b613242611ed2565b5f8585856125b2565b505050565b5f7f01ffc9a7000000000000000000000000000000000000000000000000000000007bffffffffffffffffffffffffffffffffffffffffffffffffffffffff1916827bffffffffffffffffffffffffffffffffffffffffffffffffffffffff1916149050919050565b5f5f73ffffffffffffffffffffffffffffffffffffffff168373ffffffffffffffffffffffffffffffffffffffff161415801561337057508273ffffffffffffffffffffffffffffffffffffffff168473ffffffffffffffffffffffffffffffffffffffff16148061333157506133308484611add565b5b8061336f57508273ffffffffffffffffffffffffffffffffffffffff1661335783611e99565b73ffffffffffffffffffffffffffffffffffffffff16145b5b90509392505050565b5f73ffffffffffffffffffffffffffffffffffffffff168273ffffffffffffffffffffffffffffffffffffffff16036133e9575f6040517f64a0ae920000000000000000000000000000000000000000000000000000000081526004016133e0919061365d565b60405180910390fd5b5f6133f583835f611fbf565b90505f73ffffffffffffffffffffffffffffffffffffffff168173ffffffffffffffffffffffffffffffffffffffff1614613467575f6040517f73c6ac6e00000000000000000000000000000000000000000000000000000000815260040161345e919061365d565b60405180910390fd5b505050565b5f604051905090565b5f5ffd5b5f5ffd5b5f7fffffffff0000000000000000000000000000000000000000000000000000000082169050919050565b6134b18161347d565b81146134bb575f5ffd5b50565b5f813590506134cc816134a8565b92915050565b5f602082840312156134e7576134e6613475565b5b5f6134f4848285016134be565b91505092915050565b5f8115159050919050565b613511816134fd565b82525050565b5f60208201905061352a5f830184613508565b92915050565b5f81519050919050565b5f82825260208201905092915050565b8281835e5f83830152505050565b5f601f19601f8301169050919050565b5f61357282613530565b61357c818561353a565b935061358c81856020860161354a565b61359581613558565b840191505092915050565b5f6020820190508181035f8301526135b88184613568565b905092915050565b5f819050919050565b6135d2816135c0565b81146135dc575f5ffd5b50565b5f813590506135ed816135c9565b92915050565b5f6020828403121561360857613607613475565b5b5f613615848285016135df565b91505092915050565b5f73ffffffffffffffffffffffffffffffffffffffff82169050919050565b5f6136478261361e565b9050919050565b6136578161363d565b82525050565b5f6020820190506136705f83018461364e565b92915050565b61367f8161363d565b8114613689575f5ffd5b50565b5f8135905061369a81613676565b92915050565b5f5f604083850312156136b6576136b5613475565b5b5f6136c38582860161368c565b92505060206136d4858286016135df565b9150509250929050565b6136e7816135c0565b82525050565b5f6020820190506137005f8301846136de565b92915050565b5f5ffd5b5f5ffd5b5f5ffd5b5f5f83601f84011261372757613726613706565b5b8235905067ffffffffffffffff8111156137445761374361370a565b5b6020830191508360018202830111156137605761375f61370e565b5b9250929050565b5f5f5f6040848603121561377e5761377d613475565b5b5f61378b868287016135df565b935050602084013567ffffffffffffffff8111156137ac576137ab613479565b5b6137b886828701613712565b92509250509250925092565b5f5f5f606084860312156137db576137da613475565b5b5f6137e88682870161368c565b93505060206137f98682870161368c565b925050604061380a868287016135df565b9150509250925092565b5f819050919050565b61382681613814565b8114613830575f5ffd5b50565b5f813590506138418161381d565b92915050565b5f6020828403121561385c5761385b613475565b5b5f61386984828501613833565b91505092915050565b61387b81613814565b82525050565b5f6020820190506138945f830184613872565b92915050565b5f5f604083850312156138b0576138af613475565b5b5f6138bd85828601613833565b92505060206138ce8582860161368c565b9150509250929050565b5f6138e28261361e565b9050919050565b6138f2816138d8565b81146138fc575f5ffd5b50565b5f8135905061390d816138e9565b92915050565b5f6020828403121561392857613927613475565b5b5f613935848285016138ff565b91505092915050565b5f5f6020838503121561395457613953613475565b5b5f83013567ffffffffffffffff81111561397157613970613479565b5b61397d85828601613712565b92509250509250929050565b5f6020828403121561399e5761399d613475565b5b5f6139ab8482850161368c565b91505092915050565b5f81519050919050565b5f82825260208201905092915050565b5f819050602082019050919050565b6139e6816135c0565b82525050565b5f82825260208201905092915050565b5f613a0682613530565b613a1081856139ec565b9350613a2081856020860161354a565b613a2981613558565b840191505092915050565b5f606083015f830151613a495f8601826139dd565b5060208301518482036020860152613a6182826139fc565b9150506040830151613a7660408601826139dd565b508091505092915050565b5f613a8c8383613a34565b905092915050565b5f602082019050919050565b5f613aaa826139b4565b613ab481856139be565b935083602082028501613ac6856139ce565b805f5b85811015613b015784840389528151613ae28582613a81565b9450613aed83613a94565b925060208a01995050600181019050613ac9565b50829750879550505050505092915050565b5f6020820190508181035f830152613b2b8184613aa0565b905092915050565b5f5f5f5f5f60608688031215613b4c57613b4b613475565b5b5f86013567ffffffffffffffff811115613b6957613b68613479565b5b613b7588828901613712565b95509550506020613b88888289016135df565b935050604086013567ffffffffffffffff811115613ba957613ba8613479565b5b613bb588828901613712565b92509250509295509295909350565b613bcd816134fd565b8114613bd7575f5ffd5b50565b5f81359050613be881613bc4565b92915050565b5f5f60408385031215613c0457613c03613475565b5b5f613c118582860161368c565b9250506020613c2285828601613bda565b9150509250929050565b5f81519050919050565b5f82825260208201905092915050565b5f819050602082019050919050565b5f606083015f830151613c6a5f8601826139dd565b5060208301518482036020860152613c8282826139fc565b9150506040830151613c9760408601826139dd565b508091505092915050565b5f613cad8383613c55565b905092915050565b5f602082019050919050565b5f613ccb82613c2c565b613cd58185613c36565b935083602082028501613ce785613c46565b805f5b85811015613d225784840389528151613d038582613ca2565b9450613d0e83613cb5565b925060208a01995050600181019050613cea565b50829750879550505050505092915050565b5f6020820190508181035f830152613d4c8184613cc1565b905092915050565b5f5ffd5b7f4e487b71000000000000000000000000000000000000000000000000000000005f52604160045260245ffd5b613d8e82613558565b810181811067ffffffffffffffff82111715613dad57613dac613d58565b5b80604052505050565b5f613dbf61346c565b9050613dcb8282613d85565b919050565b5f67ffffffffffffffff821115613dea57613de9613d58565b5b613df382613558565b9050602081019050919050565b828183375f83830152505050565b5f613e20613e1b84613dd0565b613db6565b905082815260208101848484011115613e3c57613e3b613d54565b5b613e47848285613e00565b509392505050565b5f82601f830112613e6357613e62613706565b5b8135613e73848260208601613e0e565b91505092915050565b5f5f5f5f60808587031215613e9457613e93613475565b5b5f613ea18782880161368c565b9450506020613eb28782880161368c565b9350506040613ec3878288016135df565b925050606085013567ffffffffffffffff811115613ee457613ee3613479565b5b613ef087828801613e4f565b91505092959194509250565b5f81519050919050565b5f82825260208201905092915050565b5f819050602082019050919050565b5f60a083015f830151613f3a5f8601826139dd565b5060208301518482036020860152613f5282826139fc565b9150506040830151613f6760408601826139dd565b506060830151613f7a60608601826139dd565b5060808301518482036080860152613f9282826139fc565b9150508091505092915050565b5f613faa8383613f25565b905092915050565b5f602082019050919050565b5f613fc882613efc565b613fd28185613f06565b935083602082028501613fe485613f16565b805f5b8581101561401f57848403895281516140008582613f9f565b945061400b83613fb2565b925060208a01995050600181019050613fe7565b50829750879550505050505092915050565b5f6020820190508181035f8301526140498184613fbe565b905092915050565b5f5f6040838503121561406757614066613475565b5b5f6140748582860161368c565b92505060206140858582860161368c565b9150509250929050565b5f5f5f604084860312156140a6576140a5613475565b5b5f6140b38682870161368c565b935050602084013567ffffffffffffffff8111156140d4576140d3613479565b5b6140e086828701613712565b92509250509250925092565b7f4e487b71000000000000000000000000000000000000000000000000000000005f52602260045260245ffd5b5f600282049050600182168061413057607f821691505b602082108103614143576141426140ec565b5b50919050565b7f4e6f6e6578697374656e7420746f6b656e0000000000000000000000000000005f82015250565b5f61417d60118361353a565b915061418882614149565b602082019050919050565b5f6020820190508181035f8301526141aa81614171565b9050919050565b5f82905092915050565b5f819050815f5260205f209050919050565b5f6020601f8301049050919050565b5f82821b905092915050565b5f600883026142177fffffffffffffffffffffffffffffffffffffffffffffffffffffffffffffffff826141dc565b61422186836141dc565b95508019841693508086168417925050509392505050565b5f819050919050565b5f61425c614257614252846135c0565b614239565b6135c0565b9050919050565b5f819050919050565b61427583614242565b61428961428182614263565b8484546141e8565b825550505050565b5f5f905090565b6142a0614291565b6142ab81848461426c565b505050565b5b818110156142ce576142c35f82614298565b6001810190506142b1565b5050565b601f821115614313576142e4816141bb565b6142ed846141cd565b810160208510156142fc578190505b614310614308856141cd565b8301826142b0565b50505b505050565b5f82821c905092915050565b5f6143335f1984600802614318565b1980831691505092915050565b5f61434b8383614324565b9150826002028217905092915050565b61436583836141b1565b67ffffffffffffffff81111561437e5761437d613d58565b5b6143888254614119565b6143938282856142d2565b5f601f8311600181146143c0575f84156143ae578287013590505b6143b88582614340565b86555061441f565b601f1984166143ce866141bb565b5f5b828110156143f5578489013582556001820191506020850194506020810190506143d0565b86831015614412578489013561440e601f891682614324565b8355505b6001600288020188555050505b50505050505050565b5f60608201905061443b5f83018661364e565b61444860208301856136de565b614455604083018461364e565b949350505050565b5f6040820190506144705f83018561364e565b61447d60208301846136de565b9392505050565b7f4e487b71000000000000000000000000000000000000000000000000000000005f52603260045260245ffd5b7f4e6f2066756e64730000000000000000000000000000000000000000000000005f82015250565b5f6144e560088361353a565b91506144f0826144b1565b602082019050919050565b5f6020820190508181035f830152614512816144d9565b9050919050565b7f496e73756666696369656e74207061796d656e7420666f72207469636b6574005f82015250565b5f61454d601f8361353a565b915061455882614519565b602082019050919050565b5f6020820190508181035f83015261457a81614541565b9050919050565b61458a82613530565b67ffffffffffffffff8111156145a3576145a2613d58565b5b6145ad8254614119565b6145b88282856142d2565b5f60209050601f8311600181146145e9575f84156145d7578287015190505b6145e18582614340565b865550614648565b601f1984166145f7866141bb565b5f5b8281101561461e578489015182556001820191506020850194506020810190506145f9565b8683101561463b5784890151614637601f891682614324565b8355505b6001600288020188555050505b505050505050565b7f4e487b71000000000000000000000000000000000000000000000000000000005f52601160045260245ffd5b5f614687826135c0565b9150614692836135c0565b92508282039050818111156146aa576146a9614650565b5b92915050565b5f6146bb838561353a565b93506146c8838584613e00565b6146d183613558565b840190509392505050565b5f6040820190508181035f8301526146f58186886146b0565b9050818103602083015261470a8184866146b0565b905095945050505050565b5f6020820190508181035f83015261472e8184866146b0565b90509392505050565b7f4552433732314d657461646174613a2055524920717565727920666f72206e6f5f8201527f6e6578697374656e7420746f6b656e0000000000000000000000000000000000602082015250565b5f614791602f8361353a565b915061479c82614737565b604082019050919050565b5f6020820190508181035f8301526147be81614785565b9050919050565b5f81905092915050565b5f81546147db81614119565b6147e581866147c5565b9450600182165f81146147ff576001811461481457614846565b60ff1983168652811515820286019350614846565b61481d856141bb565b5f5b8381101561483e5781548189015260018201915060208101905061481f565b838801955050505b50505092915050565b5f61485982613530565b61486381856147c5565b935061487381856020860161354a565b80840191505092915050565b5f61488a82856147cf565b9150614896828461484f565b91508190509392505050565b5f6148ac826135c0565b91507fffffffffffffffffffffffffffffffffffffffffffffffffffffffffffffffff82036148de576148dd614650565b5b600182019050919050565b7f4e487b71000000000000000000000000000000000000000000000000000000005f52602160045260245ffd5b5f81519050919050565b5f82825260208201905092915050565b5f61493a82614916565b6149448185614920565b935061495481856020860161354a565b61495d81613558565b840191505092915050565b5f60808201905061497b5f83018761364e565b614988602083018661364e565b61499560408301856136de565b81810360608301526149a78184614930565b905095945050505050565b5f815190506149c0816134a8565b92915050565b5f602082840312156149db576149da613475565b5b5f6149e8848285016149b2565b91505092915050565b7f4e487b71000000000000000000000000000000000000000000000000000000005f52601260045260245ffd5b5f604082019050614a315f83018561364e565b614a3e6020830184613872565b9392505050565b7f4e487b71000000000000000000000000000000000000000000000000000000005f52603160045260245ffdfea264697066735822122025a9b3a513fa7a3cac5d83238eb7c089c3b180225354d133cc08bd6db0a2770d64736f6c634300081c0033",
  "linkReferences": {},
  "deployedLinkReferences": {},
  "immutableReferences": {},
  "inputSourceName": "project/contracts/BoLilly.sol",
  "buildInfoId": "solc-0_8_28-e99cb8c20c1ff60d471d8f1a4041b02416d86be1"
}